:020000040800F2
:1000000000080020451F0008490D00084B0D00089E
:1000100000000000000000000000000000000000E0
:100020000000000000000000000000004D0D00086E
:1000300000000000000000004F0D0008510D0008F6
:10004000C51F0008C51F0008C51F0008C51F000800
:10005000C51F0008C51F0008C51F0008C51F0008F0
:1000600000000000C51F0008C51F0008C51F0008CC
:10007000C51F0008C51F000800000000C51F0008BC
:100080000000000000000000000000000000000070
:10009000C51F00080000000000000000C51F000888
:1000A00000000000C51F0008000000000000000064
:1000B000C51F0008C51F0008000000000000000068
:1000C00010B5064C2378002B07D1054B002B02D02E
:1000D000044800E000BF0123237010BD040000208D
:1000E0000000000020200008044B10B5002B03D0B6
:1000F0000349044800E000BF10BDC04600000000F6
:100100000800002020200008002243088B4274D3FE
:1001100003098B425FD3030A8B4244D3030B8B4208
:1001200028D3030C8B420DD3FF22090212BA030C11
:100130008B4202D31212090265D0030B8B4219D3F2
:1001400000E0090AC30B8B4201D3CB03C01A524112
:10015000830B8B4201D38B03C01A5241430B8B425A
:1001600001D34B03C01A5241030B8B4201D30B0343
:10017000C01A5241C30A8B4201D3CB02C01A52416A
:10018000830A8B4201D38B02C01A5241430A8B422D
:1001900001D34B02C01A5241030A8B4201D30B0216
:1001A000C01A5241CDD2C3098B4201D3CB01C01A30
:1001B000524183098B4201D38B01C01A524143093A
:1001C0008B4201D34B01C01A524103098B4201D328
:1001D0000B01C01A5241C3088B4201D3CB00C01A95
:1001E000524183088B4201D38B00C01A524143080D
:1001F0008B4201D34B00C01A5241411A00D2014632
:10020000524110467047FFE701B5002000F006F8A4
:1002100002BDC0460029F7D076E770477047C04658
:1002200010B592B03422002105A801F0F1FE14228D
:100230000021684601F0ECFE10490B68104A1A4094
:1002400080231B0113430B60102305930F3B0B937B
:1002500000240C94A0231B020D930E9405A801F01A
:10026000CFF90F2300930194029403940494002186
:10027000684601F04FFC12B010BDC046007000404F
:10028000FFE7FFFFF0B5C64600B501F031F9FFF713
:10029000C7FF00F051FB00F0B5FBA024E4050122EC
:1002A0000821200001F0CDFD01221021200001F0E5
:1002B000C8FD00F039FD022001F03CF93C484178CE
:1002C0008A2303706A3B9943437A40263343DBB267
:1002D0008022524213439846813291430132914326
:1002E0000C2211431922524242718271C271027270
:1002F00082780724A24304242243C5783F27BD43C4
:10030000AC461C2563462B43C370C9B210239943E6
:100310004170D2B270218A43324382700279BA436B
:100320002A4302714346DBB22343DBB20322134369
:10033000DBB23822934318221343437200F038FC97
:10034000002522E01B4C422323700B336370083BD3
:10035000A370153BE37001332371174BDA6EA26073
:100360005A6E22619B6EE36065610022082113488A
:1003700001F067FD1C222100114800F057FC00F03D
:10038000B5FC01350F4801F0D5F8012208210B48D2
:1003900001F057FD084800F090FA0128D2D1064C30
:1003A000200000F027FA200000F058FACAE7C04603
:1003B000900000209C00002020000020000400503D
:1003C000E7E7E7E710270000F8B505000C00A026D6
:1003D000F60500220821300001F033FD094F0A2301
:1003E00001222900380000F0CEFD0A23012221005D
:1003F000380000F0B1FF01220821300001F021FD9A
:10040000F8BDC046B8000020F0B583B00C000278FB
:100410007F2313406A46D71DD371A025ED05002226
:100420000821280001F00DFD094E0A2301223900A0
:10043000300000F0A8FD0A2301222100300000F066
:10044000A2FD01220821280001F0FBFC03B0F0BD51
:10045000B8000020704710B503781B0344782401CE
:1004600082781209234313438B65C3781B030479F5
:1004700024014279120923431343CB6583791B027C
:10048000C27913430B6610BD30B5C26DD308848D9D
:1004900061005B1A2E25415F5943CB175B055B0D4D
:1004A0005B18DB121209121B5243D1170905090D03
:1004B0008A1812133024015F5143CA179204920C18
:1004C000521892139B1803659A00D3181A008032B1
:1004D000D117FF20084080180012054A934203DB21
:1004E000044A934202DC30BD0348FCE70348FAE7C4
:1004F000815EF0FF7F34210060F0FFFF34210000B7
:10050000F8B50400026DD30F9B185B10404A944667
:100510006344DA1703263240D21895106D43E91769
:100520004A05520D5219D2123C27C05F50433A2758
:10053000E25F5A4352001218D0170640B618B610A0
:100540003822A05E000436183622A05ECA04D20CFF
:10055000521952134243D017072101408918C9107C
:100560003420225E5343DA0FD21852108A18D11762
:100570008903890B8918891480231B029C466144D6
:10058000628E4A43D1174904490C8918C9133BD0DC
:1005900080204003A36DC01AF3171B051B0D9E1985
:1005A0003613861B1B487043002829DB4000FFF7E9
:1005B000ABFD02004223E15ED0084043400B4143C3
:1005C000CB171B051B0D5B181B1391084020205EE9
:1005D0004143C817C004C00C401840131B183E21EB
:1005E000605E1B18D9170F200840C0180011801832
:1005F000094B98420AD9094B984206D9074804E0AA
:10060000FFF782FD4200D5E70548F8BD0448FCE746
:100610000006FFFF350C00002F750000B0AD010093
:100620003075000030B5036D34498C4663441A00C0
:10063000036E9D034A23C35E1B054C21415E51435B
:10064000EC1A641A8023DB019C466444E1174904D8
:10065000490C0919C9134E23C4565443E3179B058B
:100660009B0D1B199B124824045D5443E21752054D
:10067000520D1219D21280242402A44662445A4315
:10068000D3179B059B0D9B189B12802292039446C7
:1006900063444622825E534380229201944663441F
:1006A000DA179204920CD3189B135943CA175204B9
:1006B000520C5218D2135243D4177F2323409A1856
:1006C000D2114423C35C5A43D0170F2303409A1816
:1006D0001211891A0ED4C8235B05994200DD190056
:1006E000C8170005000D40180013C8235B0298428C
:1006F00002D830BD0021EEE71800FAE700D4FEFF73
:1007000010B50400002383664366C366FFF7BCFE92
:10071000A0662000FFF7F4FE60662000FFF782FF6E
:10072000E066012010BD42781202037813438B85E6
:10073000C278120283781343CB854279120203797F
:1007400013430B86C2791202837913434B86427A94
:100750001202037A13438B86C27A1202837A1343FE
:10076000CB86427B1202037B13430B87C27B1202B0
:10077000837B13434B87427C1202037C13438B879A
:10078000C27C1202837C1343CB87427D1202037D1D
:10079000134340228B52C27D1202837D13434222B7
:1007A0008B52437E2C310B76704710B54278120283
:1007B0000378134346228B5282780B002C331A772E
:1007C0000323C3569BB21B011BB204790F222240A4
:1007D00013434A228B520523C3569BB21B011BB203
:1007E0000279120913434C228B520623C3564E3111
:1007F0000B7010BD30B583B005006B468822DA71EE
:1008000000246B4607331B78A12B0CD829196B46A3
:10081000D81DFFF7D9FD0134E4B26B46DB79013313
:100820006A46D371EDE76B46E122DA7100240EE0EF
:1008300021001831691802316B46D81DFFF7C4FD3D
:100840000134E4B26B46DB7901336A46D3716B46FF
:1008500007331B78E72BEBD903B030BD30B583B03D
:1008600005006B46F722DA7100246B4607331B78CC
:10087000FF2B0FD021002031691801316B46D81DA4
:10088000FFF7A2FD0134E4B26B46DB7901336A461F
:10089000D371EAE7280021302900FFF7DCFD2900A9
:1008A0002800FFF740FF28001A302900FFF77DFFDE
:1008B0002800FFF725FF03B030BD30B583B0050039
:1008C000E0236A469371D41DB62323702100901D46
:1008D000FFF79AFD00232370D0336A4693712100FD
:1008E000901DFFF771FD2378602B02D0002003B02C
:1008F00030BD0C3BA022EA5402339F3AEA54013B3C
:100900002432EA54A0336A46937129005431901D71
:10091000FFF77AFDF2236A46937129005631901D44
:10092000FFF772FDF4236A46937129005531901D3B
:10093000FFF76AFD0120DAE7F0B5C64600B588B0DA
:100940001422002103A801F063FB2B4BD96A042277
:100950001143D962D96A0A400092009ADA6A0124E6
:100960002243DA62DA6A22400192019ADA6A0225A7
:100970002A43DA62DB6A2B400293029BA026F6052B
:1009800000220721300001F05CFA0122182130001A
:1009900001F057FA194B984600220821180001F07F
:1009A00050FA18230393049405940027069703A98B
:1009B000300001F083F9072303930494059506970B
:1009C00003A9300001F07AF980235B0003930C4BFC
:1009D0000493059503A9300001F070F908230393EF
:1009E00004940595069703A9404601F067F908B0FD
:1009F00080BCB846F0BDC046001002400004005064
:100A00000000111010B50E480E4B036082235B00EE
:100A1000436000238360C3600361436180229200CE
:100A20008261C3610362436283620733C36200F081
:100A30006EFA002800D110BDFFF70CFDFBE7C046A1
:100A4000B800002000300140F0B5C64600B586B0C1
:100A500004001422002101A801F0DAFA22681D4BDB
:100A60009A4203D006B080BCB846F0BD1A4B596B11
:100A7000802252010A435A63DA6A012188460A43F6
:100A8000DA62DB6A0B400093009B2023019302246F
:100A9000029403940327049700260596A025ED05EC
:100AA00001A9280001F00AF940230193029403945C
:100AB0000497059601A9280001F000F9802301930D
:100AC0000294434603930497059601A9280001F078
:100AD000F5F8C7E70030014000100240F0B587B0DC
:100AE0000D0016000F276F44102318433870A02004
:100AF00000221021C00501F0A4F917246C44FA2348
:100B00009B0000930123220039000F4800F00DFBE9
:100B1000FF2323700024B4420DD2FA239B000093DC
:100B200001232A0017216944074800F0FEFA013525
:100B30000134E4B2EFE7A02001221021C00501F04A
:100B400080F907B0F0BDC046B800002070B586B08F
:100B50000D0016000F246C442070A02000221021EC
:100B6000C00501F06EF9FA239B00009301231722C0
:100B70006A4421000D4800F0D8FA0024B4420DD296
:100B8000FA239B000093012317226A442900074897
:100B900000F0CBFA01350134E4B2EFE7A0200122E6
:100BA0001021C00501F04DF906B070BDB80000205D
:100BB00030B587B004000A2203A90020FFF78EFF9A
:100BC000049B0193FF251A002A40164B13430493FC
:100BD00019235B4202AA13730A2203A90020FFF71C
:100BE000B5FF049B01931D400495002302AA1373D3
:100BF0000A2203A90020FFF771FF049B01931A0A40
:100C000002AB1B7B1B061343074A934202D0002012
:100C100007B030BD0A2221000020FFF797FF012016
:100C2000F6E7C04600E7E7E7E7E7E7E7F0B5CE46D7
:100C3000474680B585B081460D00160022236A46DE
:100C40009373A023DB05984600221021180001F0C1
:100C5000F8F8254CFA27BF00009701230F226A44B9
:100C60000E216944200000F060FA6B464A469A73F0
:100C7000009701230F226A440E216944200000F0EE
:100C800054FA01221021404601F0DBF80022102125
:100C9000404601F0D6F820236A46937300971F3B25
:100CA0000F226A440E216944200000F03EFA00241D
:100CB000B4420DD2FA239B00009301230F226A4411
:100CC0002900094800F031FA01350134E4B2EFE7B8
:100CD000A02001221021C00501F0B3F805B0C0BC6E
:100CE000B946B046F0BDC046B800002010B5A020FF
:100CF00001220221C00501F0A4F88021A0204900B2
:100D0000C00501F097F80128F7D19F300022022199
:100D1000C00501F096F810BD10B5A02001220421F5
:100D2000C00501F08EF810BD10B5A02001220121F0
:100D3000C00501F086F8012000F0FCFBFFF7ECFF96
:100D4000022000F0F7FB10BD7047FEE770477047C8
:100D500010B500F0E1FB10BD054B5A6B01210A43B1
:100D60005A63996B802252050A439A637047C046C2
:100D700000100240F0B5C64600B507000D009046D1
:100D80001E003B689C682C40641B63425C414445E8
:100D90003BD0731CF5D000F0C7FB069BC01AB042D5
:100DA00001D2002EEDD13A685368E0218B435360A5
:100DB00082235B007A689A420CD080239B01BA6A36
:100DC0009A4216D051230122FA54013B0022FA54D0
:100DD00003201BE0BB6880221202934203D08022D2
:100DE000D2009342E9D13A68136840218B431360E3
:100DF000E3E73A68136807490B4013603A681168E3
:100E000080239B010B431360DCE7002080BCB846C5
:100E1000F0BDC046FFDFFFFF10B582B004008223A3
:100E20005B004068984206D05123E35C052B11D04B
:100E3000002002B010BD00920B0000228021200093
:100E4000FFF798FF0028F4D0636D202213436365F9
:100E50000320EEE700920B00002201212000FFF7A3
:100E600089FF0028E5D0636D2022134363650320CA
:100E7000DFE730B583B004000B00822040006168DA
:100E8000814217D082204000616881422FD18021A9
:100E9000C900A06888421CD0009200228021200056
:100EA000FFF768FF00282AD0636D20221343636593
:100EB000032024E0A16880200002814203D080202A
:100EC000C0008142DED1206801684025A94301604D
:100ED000D8E70092002201212000FFF74BFF0028F5
:100EE0000DD0636D202213436365032007E0009259
:100EF000002201212000FFF73DFF002801D103B0AF
:100F000030BD636D2022134363650320F7E710B5FE
:100F1000041E36D0002383625133C35C002B2AD0D9
:100F200051220223A35421680B68402083430B60A5
:100F30006368A1680B43E1680B4321690B43616956
:100F40000B4380218900A06901400B43E1690B43F9
:100F5000216A0B432168A06A03430B60618B042361
:100F60000B402168606A03434B60002363650133D3
:100F7000A354002010BD50330022C254FFF764FD7B
:100F8000CEE70120F6E7F0B5CE4600B584B0040008
:100F9000019191461D005023C35C012B00D1C2E09A
:100FA00050230122C25400F0BFFA06005123E35C33
:100FB000DFB2012B00D0A2E00199002900D19FE00F
:100FC0004B46002B00D19BE051230322E254002327
:100FD000636521634A46A286E286A363A387E3870B
:100FE0006364236480231B02A2689A421ED0236894
:100FF0001A68520603D41A6840210A431A608023F3
:101000001B01E2689A4218D06368002B02D04B465D
:10101000012B49D1236B1B7822681373236B013397
:101020002363E38E013B9BB2E3863DE022681168B7
:101030008023DB010B431360D9E76368002B02D0E8
:101040004B46012B14D12368226B1288DA60236B84
:1010500002332363E38E013B9BB2E38608E000F09A
:1010600063FA801BA84201D36B1C54D1002D54D0CD
:10107000E38E9BB2002B2AD023689A689207EED5A4
:10108000226B1288DA60236B02332363E38E013B09
:101090009BB2E386ECE700F047FA801BA84201D33D
:1010A0006B1C3CD1002D3CD0E28E92B2002A0ED0B7
:1010B00023689A689207EED5226B12781A73236B15
:1010C00001332363E28E013A92B2E286ECE732000A
:1010D00029002000FFF7A0FE002801D0202363652F
:1010E000A368002B06D103932368DA6803929B68F8
:1010F0000393039B636D002B02D1002700E00227BE
:1011000051230122E254013B0022E254380004B092
:1011100080BCB946F0BD0327F2E70327F0E70327B9
:10112000EEE70327ECE70227F0E7F0B585B004000F
:10113000009101921E000A9D5023C35C012B00D137
:1011400008E150230122C25400F0EEF907005123B8
:10115000E35CD9B26268012B0BD082235B009A4218
:1011600000D0DEE0A368002B00D0E3E0042900D02B
:10117000E2E0009B002B00D1E0E0019B002B00D1BE
:10118000DEE0002E00D1DDE05123E35C042B02D031
:1011900051230522E25400236365019AA263E68786
:1011A000A687009A2263E686A68623646364236882
:1011B0001A68520603D41A6840210A431A60802331
:1011C0001B01E2689A4211D06368002B01D0012E06
:1011D0000AD1236B1B7822681373236B01332363BB
:1011E000E38E013B9BB2E386012666E06368002B39
:1011F00001D0012E0AD12368226B1288DA60236B9A
:1012000002332363E38E013B9BB2E38601261AE09F
:1012100023689A68D2070ED5E28F92B2002A0AD0CC
:10122000DB68A26B1380A36B0233A363E38F013BE4
:101230009BB2E387012600F077F9C01BA84202D3D6
:101240006B1C00D080E0E38E9BB2002B03D1E38FB8
:101250009BB2002B4FD023689A689207D8D5E28EB4
:1012600092B2002AD4D0012ED2D1226B1288DA6039
:10127000236B02332363E38E013B9BB2E38600269C
:10128000C6E723689A68D2070ED5E28F92B2002A89
:101290000AD0DB68A26B1370A36B0133A363E38FE7
:1012A000013B9BB2E387012600F03EF9C01BA84238
:1012B00001D36B1C4AD1002D4AD0E38E9BB2002B88
:1012C00003D1E38F9BB2002B15D023689A68920755
:1012D000D7D5E28E92B2002AD3D0012ED1D1226B83
:1012E00012781A73236B01332363E38E013B9BB2A5
:1012F000E3860026C5E73A0029002000FFF78CFDB1
:1013000000280AD1A368002B0CD103932368DA6864
:1013100003929B680393039B04E0202363650120F1
:1013200000E0022051230122E254013B0022E2545A
:1013300005B0F0BD0220F5E70220F3E70120F1E758
:101340000120EFE70120EDE70320EBE70320E9E7C9
:101350000320E7E70220EBE7F0B5CE4600B584B006
:101360000400039191461D0082235B0042689A426B
:1013700035D05023E35C012B00D19DE050230122A6
:10138000E25400F0D1F807005123E35CDEB2012BF8
:1013900000D07DE0039900297BD04B46002B78D00C
:1013A00051230422E25400236365A1634A46A287C5
:1013B000E2872363A386E3862364636480231B029E
:1013C000A2689A4218D023681A68520603D41A6891
:1013D00040210A431A60E368002B1CD037E0836881
:1013E000002BC6D151330422C25400954B460A004B
:1013F000FFF79BFE060052E0226813682F490B405E
:101400001360E0E700F090F8C01BA84201D36B1C0A
:101410004AD1002D4AD0E28F92B2002A2AD0236806
:101420009A68D207EED51B7BA26B1370A36B0133B6
:10143000A363E38F013B9BB2E387ECE700F074F812
:10144000C01BA84201D36B1C32D1002D32D0E28FD9
:1014500092B2002A0ED023689A68D207EED5DB68D4
:10146000A26B1380A36B0233A363E38F013B9BB298
:10147000E387ECE73A0029002000FFF7FAFC002898
:1014800001D020236365636D002B02D1002600E0AC
:10149000022651230122E254013B0022E254300093
:1014A00004B080BCB946F0BD0326F2E70326F0E79E
:1014B0000326EEE70326ECE70226F0E7FFBFFFFF77
:1014C00010B50400094B1868FA218900FEF71CFECC
:1014D00000F0EEFC002801D0012010BD01300022F8
:1014E0002100404200F0B4FC0020F6E7000000209C
:1014F00010B5084A136840210B4313600020FFF722
:10150000DFFF041E02D00124200010BDFFF724FCE1
:10151000FAE7C04600200240024A13680133136014
:101520007047C04610010020014B18687047C04644
:101530001001002070B50400FFF7F6FF0500631CE2
:1015400000D00134FFF7F0FF401BA042FAD370BD7A
:1015500010B5264BD9680C230B40082B42D00C2B1E
:1015600011D0042B09D0214B5A68520B072313408A
:10157000013380200002984010BD1C4B1B68DB0625
:1015800032D51B48F8E78A0C0F231340194AD25C66
:10159000890D032319400131144BDB68DB0309D5A6
:1015A0005001801A8301181AC00080184002FEF70B
:1015B000ABFDE1E70D4B1B68DB0609D553019B1A18
:1015C0009801C01AC00080180002FEF79DFDD3E705
:1015D00053019B1A9801C01AC00080188002FEF7C0
:1015E00093FDC9E70448C7E70448C5E70010024077
:1015F00000093D004820000800127A000024F40091
:10160000F0B583B0041E00D161E2C44BDA680C254A
:101610001540DE6880235B021E400368DB0736D579
:10162000082D2CD00C2D28D06368802252029342C2
:1016300055D0A022D202934258D0B84B1A68B8496C
:101640000A401A601A68802149020A400192019AF0
:101650001A68B4490A401A606368002B52D0FFF739
:1016600063FF0700AD4B1B689B0310D4FFF75CFFC3
:10167000C01B6428F6D903202AE2002ED4D0A74B41
:101680001B689B0303D56368002B00D122E223680B
:101690009B076CD5E3689A0605D5A048026820210F
:1016A0000A4302608B43042D3CD00C2D38D0002B14
:1016B00000D1AEE099490A680920824313430B60C8
:1016C000FFF732FF0600954B1B685B0700D597E0DC
:1016D000FFF72AFF801B0228F5D90320F8E18F4A83
:1016E000116880235B020B431360B5E78B4B1968CD
:1016F0008022D2020A431A601968802252020A43E9
:101700001A60A9E7FFF710FF0700844B1B689B03D3
:10171000BDD5FFF709FFC01B6428F6D90320D7E128
:10172000002EC4D17D4A1268520702D5002B00D189
:10173000D2E17A4E72687C490A40216909020A4363
:101740007260326809218A4313433360FFF700FF58
:10175000F26812090F231340744AD35CD840744BCB
:1017600018600020FFF7ACFE002800D0B0E123682D
:10177000DB062CD5002D5FD1684B1B689B0503D57C
:10178000A369002B00D1A9E1644A536869490B4061
:10179000216A0B43536053681B021B0AE169090667
:1017A0000B435360236A590B013180231B028B408A
:1017B000D16809090F220A405C498A5CD3405C4A1F
:1017C00013600020FFF77CFE002800D080E1236832
:1017D0001B077DD56369002B67D0504A136D01212B
:1017E0000B431365FFF7A0FE06004C4B1B6D9B07D8
:1017F0006ED4FFF799FE801B0228F6D9032067E11B
:1018000046494B68484A13402269120213434B6011
:10181000ADE7424A136801218B431360FFF784FE52
:1018200006003E4B1B685B07A1D5FFF77DFE801BC2
:101830000228F6D903204BE1A369002B22D0374AB6
:10184000116880235B000B431360FFF76DFE0600F9
:10185000324B1B689B0506D4FFF766FE801B0228EF
:10186000F6D9032034E12D4A536832490B40216AEE
:101870000B43536053681B021B0AE16909060B43C3
:101880005360A4E7254A13682B490B401360FFF708
:101890004BFE0600214B1B689B0598D5FFF744FEC5
:1018A000801B0228F6D9032012E11C4A136D012186
:1018B0008B431365FFF738FE0600184B1B6D9B0723
:1018C00006D5FFF731FE801B0228F6D90320FFE082
:1018D00023685B0700D48CE0104B9B6BDB001BD4B0
:1018E0000E4A916B80235B050B4393630126134BD8
:1018F0001B68DB0526D5A36880225200934235D0B1
:10190000002B4BD1054B1A6D0B490A401A651A6D15
:101910000B490A401A652FE00026E8E70010024054
:10192000FFFFFEFFFFFFFBFFFFE0FFFF3820000887
:1019300000000020FF1FFFFFFFFEFFFF00700040C0
:10194000FFFBFFFF6B4A116880235B000B431360B2
:10195000FFF7EAFD0700674B1B68DB05CBD4FFF7F9
:10196000E3FDC01B6428F6D90320B1E0624A116D83
:1019700080235B000B431365A368002B28D0FFF77F
:10198000D3FD07005C4B1B6D9B0530D4FFF7CCFDEE
:10199000C01B5A4B9842F5D9032099E0A022D200EF
:1019A000934209D0544B1A6D55490A401A651A6D75
:1019B00054490A401A65DFE74F4B196D013AFF3A67
:1019C0000A431A65196D802252000A431A65D3E74B
:1019D000FFF7AAFD0700484B1B6D9B0507D5FFF7D6
:1019E000A3FDC01B454B9842F5D9032070E0012EA2
:1019F0001AD0636A002B00D172E00C2D4FD0022B5D
:101A000018D03D4A136840490B401360FFF78CFD26
:101A10000400394B1B689B013FD5FFF785FD001B78
:101A20000228F6D9032053E0334A936B37490B4021
:101A30009363DEE7304A136833490B401360FFF7C6
:101A400073FD05002C4B1B689B0106D5FFF76CFD51
:101A5000401B0228F6D903203AE02749CB682C4ADC
:101A60001340A26AE06A0243206B02431343CB6037
:101A70000A6880235B0413430B60FFF755FD0400E5
:101A80001D4B1B689B0106D4FFF74EFD001B02286F
:101A9000F6D903201CE000201AE0002018E0012BFA
:101AA00020D0154BDA6880235B021340A16A8B4279
:101AB0001AD1F0239B031340E16A8B4216D1C02355
:101AC0001B041A40236B9A4212D1002000E001202F
:101AD00003B0F0BD0120FBE70120F9E70120F7E7A3
:101AE0000020F5E70120F3E70120F1E70120EFE70F
:101AF0000120EDE700700040001002408813000054
:101B0000FFFEFFFFFFFBFFFFFFFFFFFEFFFFFFEFFB
:101B1000FFFF02FF70B504000D00002800D1B7E000
:101B20005F4B1A68012313408B420AD25C490B6851
:101B3000012293432B430B600B681A40AA4200D04A
:101B4000A8E023689B0706D5564AD368F0218B434B
:101B5000A1680B43D3602368DB0764D56368022B5D
:101B600009D0032B29D0012B2DD04E4A12689205A3
:101B700006D401208BE04B4A1268920300D48BE01C
:101B80004849CA68032082431343CB60FFF7CCFC6B
:101B900006006368022B1CD0032B28D0012B34D005
:101BA000404BDB680C221A423DD0FFF7BDFC801B86
:101BB0003D4B9842F4D9032069E03A4A12689201F9
:101BC000DED4012063E0374A12685207D8D40120DE
:101BD0005DE0344BDA680C231340082B23D0FFF769
:101BE000A3FC801B304A9042F3D903204FE02D4BD9
:101BF000DA680C2313400C2B15D0FFF795FC801BE3
:101C0000294B9842F3D9032041E0264BDA680C2394
:101C10001340042B07D0FFF787FC801B224B984210
:101C2000F3D9032033E01E4B1A6801231340AB4263
:101C300009D91B490B68012293432B430B600B68A6
:101C40001A40AA422AD123685B0706D5154AD368F1
:101C500016490B40E1680B43D36023681B0707D587
:101C60001049CB68124A13402269D2001343CB605B
:101C7000FFF76EFC0B4BDA6812090F2313400D4A75
:101C8000D35CD8400C4B18600020FFF719FC70BDE6
:101C90000120FCE70120FAE70120F8E70120F6E740
:101CA000002002400010024088130000FFF8FFFFF0
:101CB000FFC7FFFF3820000800000020F0B5C6462F
:101CC00000B5002377E084685F000326BE40B4437C
:101CD0002600CC68BC4034438460446894434A681E
:101CE0001609012232409A402243426004685E0095
:101CF00003221700B740BC434D682A40B24022433C
:101D00000260C468BC438A68B2402243C2604A6829
:101D1000D2004FD5424C626B0126324362639A086F
:101D2000941CA4003F4EA75903241C40A4000F2676
:101D3000A640B743A026F605B04269D03A4EB0425D
:101D400068D03A4EB04261D00626A64034003C43EB
:101D500002329200334E9451354A14684246D243BF
:101D600026004546AE434D68ED0302D545462C435B
:101D700026002F4C26606468260016404D68AD038F
:101D800002D545462C432600294C6660A4682600EF
:101D900016404D68ED0202D545462C432600244CE2
:101DA000A660E46822404D68AD0201D54246224358
:101DB0001F4CE26001330C682200DA402CD0012273
:101DC0009A4025001540A8461442F3D04C68022CD6
:101DD00001D0122C0ED1DC080834A40027580726A5
:101DE0001E40B6000F25B540AF430D69B5402E002B
:101DF0003E4326504C68661E012E00D863E7112C26
:101E000000D160E7122C00D070E75CE702269CE767
:101E100000269AE7012698E780BCB846F0BDC04688
:101E20000010024000000140000400500008005073
:101E30000004014003690B4201D0012070470020DB
:101E4000FCE7002A01D0816170478162FCE7000055
:101E500070B5002811DB8308134DC0339B005C591B
:101E600003221040C000FC3216008640B4438901B2
:101E70000A40824022435A5170BD0F230340083B61
:101E80009B0806339B00094A944663445D6803241B
:101E90002040C000FF2214008440A54389010A406D
:101EA00082402A435A60E7E700E100E000ED00E0ED
:101EB000013880235B0498420FD2094A50600948D8
:101EC000036A1B021B0AC02109060B43036200239D
:101ED000936007331360002070470120FCE7C04681
:101EE00010E000E000ED00E0104B19688022520085
:101EF0000A431A60DA680E490A40DA601A680D4926
:101F00000A401A609A6801218A439A601A680A494D
:101F10000A401A60DA6809490A40DA6000221A6148
:101F2000074B802212059A607047C046001002409D
:101F30000C40FF88F6FFF6FEFFFFFBFFFFFF02FFEE
:101F400000ED00E01348854613480168090E134A66
:101F5000914205D1124813490160134813490160A9
:101F6000002103E0124B5B58435004311148124BDF
:101F700042189A42F6D3114A02E000231360043259
:101F80000F4B9A42F9D3FFF7AFFF00F01DF8FEF7B1
:101F900079F9FEE700080020040000001F0000009F
:101FA0003410024001000000000001400000000069
:101FB0005C20000800000020040000200400002035
:101FC00014010020FEE7000070B500260C4D0D4CFA
:101FD000641BA410A64209D1002600F021F80A4D86
:101FE0000A4C641BA410A64205D170BDB300EB5887
:101FF00098470136EEE7B300EB5898470136F2E711
:1020000054200008542000085420000858200008DC
:1020100003008218934200D1704719700133F9E729
:10202000F8B5C046F8BC08BC9E467047F8B5C04637
:08203000F8BC08BC9E46704795
:102038000000000000000000010203040607080970
:0C204800030406080C10182030000000F3
:04205400E900000897
:04205800C1000008BB
:04205C000000200060
:0400000508001F458B
:00000001FF
