:020000040800F2
:1000000000080020D91E0008F50C0008F70C0008B5
:1000100000000000000000000000000000000000E0
:10002000000000000000000000000000F90C0008C3
:100030000000000000000000FB0C0008FD0C0008A0
:10004000591F0008591F0008591F0008591F0008B0
:10005000591F0008591F0008591F0008591F0008A0
:1000600000000000591F0008591F0008591F000810
:10007000591F0008591F000800000000591F000800
:100080000000000000000000000000000000000070
:10009000591F00080000000000000000591F000860
:1000A00000000000591F00080000000000000000D0
:1000B000591F0008591F0008000000000000000040
:1000C00010B5064C2378002B07D1054B002B02D02E
:1000D000044800E000BF0123237010BD040000208D
:1000E00000000000B41F0008044B10B5002B03D023
:1000F0000349044800E000BF10BDC04600000000F6
:1001000008000020B41F0008002243088B4274D36B
:1001100003098B425FD3030A8B4244D3030B8B4208
:1001200028D3030C8B420DD3FF22090212BA030C11
:100130008B4202D31212090265D0030B8B4219D3F2
:1001400000E0090AC30B8B4201D3CB03C01A524112
:10015000830B8B4201D38B03C01A5241430B8B425A
:1001600001D34B03C01A5241030B8B4201D30B0343
:10017000C01A5241C30A8B4201D3CB02C01A52416A
:10018000830A8B4201D38B02C01A5241430A8B422D
:1001900001D34B02C01A5241030A8B4201D30B0216
:1001A000C01A5241CDD2C3098B4201D3CB01C01A30
:1001B000524183098B4201D38B01C01A524143093A
:1001C0008B4201D34B01C01A524103098B4201D328
:1001D0000B01C01A5241C3088B4201D3CB00C01A95
:1001E000524183088B4201D38B00C01A524143080D
:1001F0008B4201D34B00C01A5241411A00D2014632
:10020000524110467047FFE701B5002000F006F8A4
:1002100002BDC0460029F7D076E770477047C04658
:1002200010B592B03422002105A801F0BBFE1422C3
:100230000021684601F0B6FE10490B68104A1A40CA
:1002400080231B0113430B60102305930F3B0B937B
:1002500000240C94A0231B020D930E9405A801F01A
:100260009BF90F23009301940294039404940021BA
:10027000684601F01BFC12B010BDC0460070004083
:10028000FFE7FFFFF8B501F0FFF8FFF7C9FF00F047
:1002900043FB00F0A1FBA024E4050122082120007B
:1002A00001F099FD01221021200001F094FD00F0E1
:1002B00011FD022001F00AF9384841788A230370C1
:1002C0006A3B9943437A4022944662461343802214
:1002D0005242134381329143013291431B3A42719E
:1002E0008271C271027282780724A2430424C57805
:1002F0003F27BD431C263543C5700C2529431025D7
:10030000A9434170224370218A4361460A438270A7
:100310000279BA4332430271DBB22343032213430F
:100320003822934318221343437200F025FC002522
:1003300022E01B4C422323700B336370083BA370F5
:10034000153BE37001332371164BDA6EA2605A6ECF
:1003500022619B6EE360656100220821124801F072
:100360003AFD1C222100114800F03EFC00F094FCF4
:1003700001350F4801F0AAF8012208210A4801F0CE
:100380002AFD084800F088FA0128D2D1054C200047
:1003900000F022FA200000F051FACAE79000002095
:1003A0009C0000202000002000040050E7E7E7E761
:1003B000E0930400F8B507000E00A024E405002235
:1003C0000821200001F007FD094D0A230122390010
:1003D000280000F0ACFD0A2301223100280000F0C3
:1003E00089FF01220821200001F0F5FCF8BDC0467C
:1003F000B8000020F0B583B00D0002787F231340D1
:100400006A46D71DD371A024E405002208212000EC
:1004100001F0E1FC094E0A2301223900300000F00E
:1004200086FD0A2301222900300000F080FD012210
:100430000821200001F0CFFC03B0F0BDB80000207F
:10044000704710B503781B034478240182781209A1
:10045000234313438B65C3781B030479240142793A
:10046000120923431343CB6583791B02C2791343DB
:100470000B6610BD30B5C26DD308848D61005B1A68
:100480002E25415F5943CB175B055B0D5B18DB12D3
:100490001209121B5243D1170905090D8A181213AC
:1004A0003024015F5143CA179204920C52189213E0
:1004B0009A18026593009B188033DA17FF201040CA
:1004C000C0180012054B984203DB054B984202DC32
:1004D00030BD0248FCE70248FAE7C04660F0FFFF83
:1004E00034210000F8B50400026DD30F9B185B1097
:1004F000404A94466344DA1703263240D2189510D6
:100500006D43E9174A05520D5219D2123C27C05FBC
:1005100050433A27E25F5A4352001218D017064060
:10052000B618B6103822A05E000436183622A05E37
:10053000CA04D20C521952134243D017072101406A
:100540008918C9103420225E5343DA0FD218521092
:100550008A18D1178903890B8918891480231B02F3
:100560009C466144628E4A43D1174904490C89185C
:10057000C91339D080204003A36DC01AF3171B059F
:100580001B0D9E193613861B1B487043002827DB62
:100590004000FFF7B9FD4223E25EC1084943490B21
:1005A0004A43D3171B051B0D9B181B1381084022C0
:1005B000A25E5143CA17D204D20C521852139B1890
:1005C0003E21625E9B18D9170F220A40D3181B11D7
:1005D00018180A4B984209D9094B984208D8F8BD17
:1005E000FFF792FD4000D6E70648F8E70548F6E732
:1005F0000348F4E70006FFFF350C00002F750000EC
:10060000B0AD01003075000030B5036D34498C4643
:1006100063441A00036E9D034A23C35E1B054C21ED
:10062000415E5143EC1A641A8023DB019C4664440A
:10063000E1174904490C0919C9134E23C456544300
:10064000E3179B059B0D1B199B124824045D544323
:10065000E2175205520D1219D21280242402A44628
:1006600062445A43D3179B059B0D9B189B12802213
:100670009203944663444622825E53438022920151
:1006800094466344DA179204920CD3189B1359438F
:10069000CA175204520C5218D2135243D4177F2354
:1006A00023409A18D2114423C35C5A43D0170F2316
:1006B00003409A181211891A0ED4C8235B05994277
:1006C00000DD1900C8170005000D40180013C823ED
:1006D0005B02984202D830BD0021EEE71800FAE72D
:1006E00000D4FEFF10B50400002383664366C36692
:1006F000FFF7C0FEA0662000FFF7F4FE6066200052
:10070000FFF782FFE066012010BD427812020378F5
:1007100013438B85C278120283781343CB854279C9
:100720001202037913430B86C279120283791343B1
:100730004B86427A1202037A13438B86C27A1202E4
:10074000837A1343CB86427B1202037B13430B87CE
:10075000C27B1202837B13434B87427C1202037CD1
:1007600013438B87C27C1202837C1343CB87427D69
:100770001202037D134340228B52C27D1202837DFD
:10078000134342228B52437E2C310B76704710B5B7
:10079000427812020378134346228B5282780B0070
:1007A0002C331A770323C3569BB21B011BB2047967
:1007B0000F22224013434A228B520523C3569BB279
:1007C0001B011BB20279120913434C228B520623E0
:1007D000C3564E310B7010BD70B582B006006B462B
:1007E0008822DA7100240AE031196B46DD1D2800E9
:1007F000FFF7E0FD0134E4B22B7801332B706B4638
:1008000007331B78A12BEFD96B46E122DA71002464
:100810000DE021001831711802316B46DD1D2800F2
:10082000FFF7C8FD0134E4B22B7801332B706B461F
:1008300007331B78E72BECD902B070BD70B582B0DE
:1008400006006B46F722DA7100240DE0210020310A
:10085000711801316B46DD1D2800FFF7ABFD013437
:10086000E4B22B7801332B706B4607331B78FF2BD8
:10087000ECD1300021303100FFF7E3FD31003000D2
:10088000FFF743FF30001A303100FFF780FF3000E0
:10089000FFF728FF02B070BD70B582B006006B464E
:1008A0009D1DE0232B706B46DC1DB62323702100B9
:1008B0002800FFF79FFD00232370D0332B70210009
:1008C0002800FFF777FD2378602B02D0002002B0CC
:1008D00070BD0C3BA022F25402339F3AF254013B0C
:1008E0002432F2546B469C1DF523237031005431A1
:1008F0002000FFF77FFDF2232370310056312000E6
:10090000FFF778FDF4232370310055312000FFF705
:1009100071FD0120DBE70000F0B589B01422002151
:1009200003A801F03FFB294BD96A04221143D96285
:10093000D96A0A400092009ADA6A01242243DA62F4
:10094000DA6A22400192019ADA6A02252A43DA62BF
:10095000DB6A2B400293029BA026F60500220721AA
:10096000300001F038FA01221821300001F033FA8A
:1009700000220821164801F02EFA1823039304944C
:1009800005940027069703A9300001F063F90723B7
:10099000039304940595069703A9300001F05AF9D2
:1009A00080235B0003930B4B0493059503A9300050
:1009B00001F050F90823039304940595069703A9C1
:1009C000034801F047F909B0F0BDC04600100240ED
:1009D000000400500000111010B50E480E4B0360CB
:1009E00082235B00436000238360C3600361436133
:1009F000802292008261C361036243628362073393
:100A0000C36200F058FA002800D110BDFFF718FDAE
:100A1000FBE7C046B800002000300140F0B587B0C9
:100A200004001422002101A801F0BCFA22681B4B2B
:100A30009A4201D007B0F0BD194B596B8022520188
:100A40000A435A63DA6A01273A43DA62DB6A3B40B7
:100A50000093009B20230193022402940394032615
:100A6000049601A9A020C00501F0F4F840230193E9
:100A70000294039404960025059501A9A020C005C1
:100A800001F0E8F8802301930294039704960595FA
:100A900001A9A020C00501F0DDF8CBE7003001403E
:100AA00000100240F0B587B00D0016000F276F440C
:100AB000102318433870A02000221021C00501F037
:100AC0008AF917246C44FA239B0000930123220027
:100AD00039000F4800F0F8FAFF23237000240CE0DF
:100AE000FA239B00009301232A0017216944084838
:100AF00000F0EAFA01350134E4B2B442F0D3A020A8
:100B000001221021C00501F066F907B0F0BDC04612
:100B1000B800002070B586B00D0016000F246C449C
:100B20002070A02000221021C00501F054F9FA2302
:100B30009B000093012317226A4421000D4800F016
:100B4000C3FA00240CE0FA239B0000930123172230
:100B50006A442900074800F0B7FA01350134E4B2CD
:100B6000B442F0D3A02001221021C00501F033F9D6
:100B700006B070BDB800002070B584B0050001ACAF
:100B80000A2221000020FFF78DFFFF266268324015
:100B9000134B1343636019235B4223720A22210023
:100BA0000020FFF7B7FF63681E40666000232372D2
:100BB0000A2221000020FFF775FF63681A0A237AD2
:100BC0001B061343074A934202D0002004B070BDB5
:100BD0000A2229000020FFF79DFF0120F6E7C0460A
:100BE00000E7E7E7E7E7E7E7F0B5D64600B584B00A
:100BF00082460D0016000E246C442223237000222E
:100C00001021A020C00501F0E6F8FA27BF000097E8
:100C100001230F226A4421001E4800F055FA534672
:100C20002370009701230F226A442100194800F025
:100C30004BFA01221021A020C00501F0CCF80022BF
:100C40001021A020C00501F0C6F8202323700097D2
:100C50001F3B0F226A4421000E4800F035FA0024A1
:100C60000CE0FA239B00009301230F226A44290021
:100C7000084800F029FA01350134E4B2B442F0D357
:100C8000A02001221021C00501F0A5F804B004BC89
:100C90009246F0BDB800002010B5A020012202212C
:100CA000C00501F098F88021A0204900C00501F09E
:100CB0008BF80128F7D19F3000220221C00501F0F6
:100CC0008AF810BD10B5A02001220421C00501F052
:100CD00082F810BD10B5A02001220121C00501F04D
:100CE0007AF8012000F0F2FBFFF7ECFF022000F0A1
:100CF000EDFB10BD7047FEE77047704710B500F080
:100D0000D7FB10BD054B5A6B01210A435A63996BFF
:100D1000802252050A439A637047C0460010024081
:100D2000F8B506000C0017001D0033689B682340CF
:100D30001B1B5A425341BB423BD06B1CF5D000F009
:100D4000BFFB069BC01AA84201D2002DEDD132682C
:100D50005368E0218B43536082235B0072689A42A0
:100D60000CD080239B01B26A9A4216D051230122F3
:100D7000F254013B0022F25403201BE0B3688022AE
:100D80001202934203D08022D2009342E9D132680A
:100D9000136840218B431360E3E732681368064908
:100DA0000B4013603268116880239B010B43136072
:100DB000DCE70020F8BDC046FFDFFFFF10B582B0C2
:100DC0000400822040006368834206D05120205CEA
:100DD000052811D0002002B010BD00920B000022A7
:100DE00080212000FFF79CFF0028F4D0636D2022B3
:100DF000134363650320EEE700920B0000220121FC
:100E00002000FFF78DFF0028E5D0636D20221343FB
:100E100063650320DFE730B583B004008220400023
:100E20006368834218D0822040006368834231D1D6
:100E30008023DB00A06898421DD000920B000022A6
:100E400080212000FFF76CFF00282CD0636D20224A
:100E500013436365032026E0A368802000028342D9
:100E600003D08020C0008342DDD120680368402584
:100E7000AB430360D7E700920B0000220121200062
:100E8000FFF74EFF00280ED0636D202213436365E9
:100E9000032008E000920B00002201212000FFF750
:100EA0003FFF002801D103B030BD636D2022134302
:100EB00063650320F7E710B5041E36D00023836274
:100EC0005133C35C002B2AD051220223A354216842
:100ED0000B68402083430B606368A1680B43E168A3
:100EE0000B4321690B4361690B4380218900A06991
:100EF00001400B43E1690B43216A0B432168A06A5F
:100F000003430B60618B04230B402168606A034339
:100F10004B60002363650133A354002010BD5033A0
:100F20000022C254FFF77AFDCEE70120F6E7F0B5C4
:100F300085B00400019116001F005023C35C012BF3
:100F400000D1BFE050230122C25400F0B9FA0500DD
:100F50005123E35C012B08D0022051230122E254EB
:100F6000013B0022E25405B0F0BD0199002900D1F7
:100F70009AE0002E00D199E050330322E25400237E
:100F800063652163A686E686A363A387E38763641C
:100F9000236480231B02A2689A421DD023681A682A
:100FA000520603D41A6840210A431A6080231B01A9
:100FB000E2689A4217D06368002B01D0012E48D115
:100FC000236B1B7822681373236B01332363E38E37
:100FD000013B9BB2E3863CE0226811688023DB0181
:100FE0000B431360DAE76368002B01D0012E14D1A4
:100FF0002368226B1288DA60236B02332363E38E4B
:10100000013B9BB2E38608E000F05AFA401BB8426D
:1010100001D37B1C4CD1002F4CD0E38E9BB2002B14
:101020002AD023689A689207EED5226B1288DA607C
:10103000236B02332363E38E013B9BB2E386ECE731
:1010400000F03EFA401BB84201D37B1C34D1002F84
:1010500034D0E38E9BB2002B0ED023689A6892079F
:10106000EED5226B12781A73236B01332363E38E60
:10107000013B9BB2E386ECE72A0039002000FFF732
:101080009DFE002801D020236365A368002B06D1B4
:1010900003932368DA6803929B680393039B636D51
:1010A000002B0DD1002058E7012056E7012054E71E
:1010B000032052E7032050E703204EE703204CE7CC
:1010C00001204AE702204EE7F0B585B004000E008B
:1010D00001921D005023C35C012B00D108E1502375
:1010E0000122C25400F0ECF907005123E35CDBB2AB
:1010F0006268012B14D0822149008A4208D0022064
:1011000051230122E254013B0022E25405B0F0BD1C
:10111000A268002A00D0DDE0042B01D00220EFE716
:10112000002E00D1D8E0019B002B00D1D6E0002D8D
:1011300000D1D5E05123E35C042B02D051230522DA
:10114000E25400236365019AA263E587A5872663BD
:10115000E586A5862364636423681A68520603D46F
:101160001A6840210A431A6080231B01E2689A42F0
:1011700011D06368002B01D0012D0AD1236B1B789D
:1011800022681373236B01332363E38E013B9BB20D
:10119000E386012569E06368002B01D0012D0AD1A7
:1011A0002368226B1288DA60236B02332363E38E99
:1011B000013B9BB2E38601251BE023689A68D207B6
:1011C0000ED5E28F92B2002A0AD0DB68A26B1380A0
:1011D000A36B0233A363E38F013B9BB2E38701253B
:1011E00000F06EF9C01B0A9B984202D3013300D075
:1011F00078E0E38E9BB2002B03D1E38F9BB2002BF0
:1012000051D023689A689207D7D5E28E92B2002A0D
:10121000D3D0012DD1D1226B1288DA60236B023337
:101220002363E38E013B9BB2E3860025C5E7236879
:101230009A68D2070ED5E28F92B2002A0AD0DB68F4
:10124000A26B1370A36B0133A363E38F013B9BB2CB
:10125000E387012500F034F9C01B0A9B984201D3B3
:10126000013341D10A9B002B40D0E38E9BB2002B6F
:1012700003D1E38F9BB2002B15D023689A689207A5
:10128000D5D5E28E92B2002AD1D0012DCFD1226BDA
:1012900012781A73236B01332363E38E013B9BB2F5
:1012A000E3860025C3E73A000A992000FFF786FD90
:1012B000002803D020236365012021E7A368002BC9
:1012C00000D01DE703932368DA6803929B680393B9
:1012D000039B15E7022013E7012011E701200FE728
:1012E00001200DE703200BE7032009E7032007E7B0
:1012F00002200BE7F0B585B004000D0016001F00BA
:1013000082235B0042689A4217D05023E35C012B92
:1013100000D19CE050230122E25400F0D1F8039068
:101320005123E35C012B14D0022051230122E2540B
:10133000013B0022E25405B0F0BD8368002BE4D1EC
:1013400051330422C254009733000A00FFF7BCFE59
:10135000F1E7002D6DD0002E6DD050330422E25401
:1013600000236365A563A687E6872363A386E386D8
:101370002364636480231B02A2689A420BD0236813
:101380001A68520603D41A6840210A431A60E368B7
:10139000002B10D02CE0226813682E490B401360FC
:1013A000EDE700F08DF8039BC01AB84201D37B1C17
:1013B00043D1002F43D0E38F9BB2002B2BD0236867
:1013C0009A68D207EDD51B7BA26B1370A36B013318
:1013D000A363E38F013B9BB2E387ECE700F070F877
:1013E000039BC01AB84201D37B1C2AD1002F2AD0FC
:1013F000E38F9BB2002B0ED023689A68D207EDD5FD
:10140000DB68A26B1380A36B0233A363E38F013B02
:101410009BB2E387ECE7039A39002000FFF7FBFC5F
:10142000002801D020236365636D002B0DD10020BF
:101430007BE7012079E7012077E7032075E70320A8
:1014400073E7032071E703206FE701206DE70220B7
:1014500071E7C046FFBFFFFF10B50400094B1868D5
:10146000FA218900FEF750FE00F0ECFC002801D0C4
:10147000012010BD013000222100404200F0B2FCEA
:101480000020F6E70000002010B5084A136840214C
:101490000B4313600020FFF7DFFF041E02D001247E
:1014A000200010BDFFF72EFCFAE7C04600200240E6
:1014B000024A1368013313607047C04610010020D0
:1014C000014B18687047C0461001002070B5040039
:1014D000FFF7F6FF0500631C00D00134FFF7F0FFB3
:1014E000401BA042FAD370BD10B5264BD9680C231F
:1014F0000B40082B42D00C2B11D0042B09D0214BD0
:101500005A68520B07231340013380200002984091
:1015100010BD1C4B1B68DB0632D51B48F8E78A0C54
:101520000F231340194AD05C890D03221140013169
:10153000144BDB68DB030DD4124B1B68DB0613D5A1
:101540004201121A93019B1ADB001B181802FEF7C6
:10155000DBFDDDE74201121A93019B1ADB001B1829
:101560005802FEF7D1FDD3E74201121A93019B1AEC
:10157000DB001B189802FEF7C7FDC9E70448C7E760
:101580000448C5E70010024000093D00DC1F0008C8
:1015900000127A000024F400F0B583B0041E00D1DC
:1015A00065E2C44BDA680C251540DA6880267602BD
:1015B00016400368DB0736D5082D2CD00C2D28D01B
:1015C000636880225202934255D0A022D2029342F5
:1015D00058D0B84B1A68B8490A401A601A68802176
:1015E00049020A400192019A1A68B4490A401A60F5
:1015F0006368002B52D0FFF763FF0700AD4B1B68F9
:101600009B0310D4FFF75CFFC01B6428F6D90320AE
:101610002EE2002ED4D0A74B1B689B0303D5636832
:10162000002B00D126E223689B076CD5E3689A065D
:1016300005D5A048026820210A4302608B43042D8F
:101640003CD00C2D38D0002B00D1AEE099490A686F
:101650000920824313430B60FFF732FF0600954BCE
:101660001B685B0700D597E0FFF72AFF801B022865
:10167000F5D90320FCE18F4A116880235B020B43FC
:101680001360B5E78B4B19688022D2020A431A60B7
:101690001968802252020A431A60A9E7FFF710FF77
:1016A0000700844B1B689B03BDD5FFF709FFC01BD8
:1016B0006428F6D90320DBE1002EC4D17D4A1268EC
:1016C000520702D5002B00D1D6E17A4E72687C49D0
:1016D0000A40216909020A437260326809218A437B
:1016E00013433360FFF700FFF26812090F23134022
:1016F000744AD35CD840744B18600020FFF7ACFEEE
:10170000002800D0B4E12368DB062CD5002D5FD182
:10171000684B1B689B0503D5A369002B00D1ADE185
:10172000644A536869490B40216A0B43536053680C
:101730001B021B0AE16909060B435360236A590B1C
:10174000013180231B028B40D16809090F220A4016
:101750005C498A5CD3405C4A13600020FFF77CFE42
:10176000002800D084E123681B077DD56369002B26
:1017700067D0504A136D01210B431365FFF7A0FE9C
:1017800006004C4B1B6D9B076ED4FFF799FE801B28
:101790000228F6D903206BE146494B68484A1340BA
:1017A0002269120213434B60ADE7424A13680121DC
:1017B0008B431360FFF784FE06003E4B1B685B07FC
:1017C000A1D5FFF77DFE801B0228F6D903204FE14B
:1017D000A369002B22D0374A116880235B000B439A
:1017E0001360FFF76DFE0600324B1B689B0506D4A5
:1017F000FFF766FE801B0228F6D9032038E12D4A48
:10180000536832490B40216A0B43536053681B02F3
:101810001B0AE16909060B435360A4E7254A1368D4
:101820002B490B401360FFF74BFE0600214B1B6852
:101830009B0598D5FFF744FE801B0228F6D90320AC
:1018400016E11C4A136D01218B431365FFF738FE27
:101850000600184B1B6D9B0706D5FFF731FE801B5A
:101860000228F6D9032003E123685B0700D48CE04B
:10187000104B9B6BDB001BD40E4A916B80235B05E6
:101880000B4393630126134B1B68DB0526D5A36826
:1018900080225200934235D0002B4BD1054B1A6D5C
:1018A0000B490A401A651A6D0B490A401A652FE068
:1018B0000026E8E700100240FFFFFEFFFFFFFBFFEE
:1018C000FFE0FFFFCC1F000800000020FF1FFFFF0C
:1018D000FFFEFFFF00700040FFFBFFFF6B4A116837
:1018E00080235B000B431360FFF7EAFD0700674BA3
:1018F0001B68DB05CBD4FFF7E3FDC01B6428F6D9DA
:101900000320B5E0624A116D80235B000B43136531
:10191000A368002B28D0FFF7D3FD07005C4B1B6D9D
:101920009B0530D4FFF7CCFDC01B5A4B9842F5D92C
:1019300003209DE0A022D200934209D0544B1A6D9F
:1019400055490A401A651A6D54490A401A65DFE77D
:101950004F4B196D013AFF3A0A431A65196D8022FF
:1019600052000A431A65D3E7FFF7AAFD0700484B68
:101970001B6D9B0507D5FFF7A3FDC01B454B984288
:10198000F5D9032074E0012E1AD0636A002B00D130
:1019900076E00C2D4FD0022B18D03D4A13684049F9
:1019A0000B401360FFF78CFD0400394B1B689B0153
:1019B0003FD5FFF785FD001B0228F6D9032057E02D
:1019C000334A936B37490B409363DEE7304A136821
:1019D00033490B401360FFF773FD05002C4B1B6868
:1019E0009B0106D5FFF76CFD401B0228F6D90320AA
:1019F0003EE02749CB682C4A1340A26AE06A0243C2
:101A0000206B02431343CB600A6880235B041343BB
:101A10000B60FFF755FD04001D4B1B689B0106D4AE
:101A2000FFF74EFD001B0228F6D9032020E000201E
:101A30001EE000201CE0012B24D0154BDA68802327
:101A40005B021340A16A8B4201D0012010E0F02319
:101A50009B031340E16A8B4201D0012008E0C023C0
:101A60001B041A40236B9A420ED0012000E0012093
:101A700003B0F0BD0120FBE70120F9E70120F7E703
:101A80000020F5E70120F3E70020F1E700700040B7
:101A90000010024088130000FFFEFFFFFFFBFFFF66
:101AA000FFFFFFFEFFFFFFEFFFFF02FF70B5040027
:101AB0000D00002800D1BAE05F4B1A6801231340E3
:101AC0008B420BD25C490B68012293432B430B6082
:101AD0000B681A40AA4201D00120A9E023689B07A5
:101AE00006D5564AD368F0218B43A1680B43D360D7
:101AF0002368DB0764D56368022B09D0032B29D048
:101B0000012B2DD04D4A1268920506D401208FE09A
:101B10004A4A1268920300D48BE04849CA680320FD
:101B200082431343CB60FFF7CBFC06006368022BB4
:101B30001CD0032B28D0012B34D0404BDB680C2267
:101B40001A423DD0FFF7BCFC801B3D4B9842F4D9B4
:101B500003206DE0394A12689201DED4012067E06B
:101B6000364A12685207D8D4012061E0334BDA6854
:101B70000C231340082B23D0FFF7A2FC801B304B13
:101B80009842F3D9032053E02C4BDA680C2313401E
:101B90000C2B15D0FFF794FC801B294B9842F3D9EE
:101BA000032045E0254BDA680C231340042B07D0B3
:101BB000FFF786FC801B224B9842F3D9032037E0C5
:101BC0001D4B1A6801231340AB420BD91A490B680D
:101BD000012293432B430B600B681A40AA4201D0A9
:101BE000012025E023685B0706D5144AD368154910
:101BF0000B40E1680B43D36023681B0707D50F49EF
:101C0000CB68114A13402269D2001343CB60FFF71F
:101C10006BFC0A4BDA6812090F2313400B4AD35CA2
:101C2000D8400B4B18600020FFF716FC00E00120A5
:101C300070BD0120FCE7C0460020024000100240B9
:101C400088130000FFF8FFFFFFC7FFFFCC1F00084D
:101C500000000020F0B5C64600B5002378E0856896
:101C60005F000326BE40B5432E00CD68BD4035431E
:101C700085604568A5434A681609012434409C40A4
:101C80002C43446007685E0003242500B540ED4303
:101C90002F404A681440B4403C430460C468254067
:101CA0008C68B4402C43C4604A68D2004FD5414D83
:101CB0006C6B012634436C639C08A51CAD003E4E42
:101CC000AF5903251D40AD000F26AE40B743A026F7
:101CD000F605B04267D0394EB04266D0384EB042B9
:101CE0005FD00626AE4035003D430234A400324E9C
:101CF000A551344C25684246D4432E0026404A68FC
:101D0000D20302D5424615432E002E4D2E606D683B
:101D10002E0026404A68920302D5424615432E0003
:101D2000284D6E60AD682E0026404A68D20202D56A
:101D3000424615432E00234DAE60ED682C404A68A4
:101D4000920202D542462A4314001E4AD46001334F
:101D50000A681400DC402AD001249C4022409046AE
:101D6000F5D04D68022D01D0122D0ED1DD080835B9
:101D7000AD002F5807261E40B6000F22B2409743F1
:101D80000A69B24016003E432E504D686E1E012E69
:101D900000D864E7112D00D161E7122D00D071E762
:101DA0005DE702269EE700269CE701269AE704BC31
:101DB0009046F0BD001002400000014000040050B9
:101DC000000800500004014003690B4201D10020CB
:101DD00070470120FCE7002A01D1816270478161D0
:101DE000FCE7000070B5002811DB8408134DC034F7
:101DF000A400625903231840C000FC331E00864033
:101E0000B24389010B4083401343635170BDC0B29C
:101E10000F220240083A920806329200084BD3186B
:101E20005D6803242040C000FF2214008440A543C5
:101E300089010A4082402A435A60E7E700E100E056
:101E400000ED00E001380A4B98420FD8094A506073
:101E50000948036A1B021B0AC02109060B430362DF
:101E60000023936007331360002070470120FCE7D4
:101E7000FFFFFF0010E000E000ED00E0104B1968EC
:101E8000802252000A431A60DA680E490A40DA607A
:101E90001A680D490A401A609A6801218A439A60BB
:101EA0001A680A490A401A60DA6809490A40DA6081
:101EB00000221A61074B802212059A607047C046C3
:101EC000001002400C40FF88F6FFF6FEFFFFFBFF0C
:101ED000FFFF02FF00ED00E013488546134801684C
:101EE000090E134A914205D1124813490160134863
:101EF00013490160002103E0124B5B584350043149
:101F00001148124B42189A42F6D3114A02E00023BC
:101F1000136004320F4B9A42F9D3FFF7AFFF00F082
:101F20001DF8FEF7AFF9FEE70008002004000000EE
:101F30001F000000341002400100000000000140BA
:101F400000000000F01F0008000000200400002036
:101F50000400002014010020FEE7000070B50026F8
:101F60000C4D0D4C641BA410A64209D1002600F0B4
:101F700021F80A4D0A4C641BA410A64205D170BD7D
:101F8000B300EB5898470136EEE7B300EB5898479B
:101F90000136F2E7E81F0008E81F0008E81F000804
:101FA000EC1F000803001218934200D1704719700B
:101FB0000133F9E7F8B5C046F8BC08BC9E46704747
:0C1FC000F8B5C046F8BC08BC9E4670474F
:101FCC0000000000000000000102030406070809DD
:0C1FDC00030406080C1018203000000060
:041FE800E900000804
:041FEC00C100000828
:041FF00000002000CD
:0400000508001ED9F8
:00000001FF
